:020000040800F2
:100000000028002075120008051200080B120008D5
:1000100011120008171200081D120008000000004D
:100020000000000000000000000000002312000893
:100030002F120008000000003B12000847120008C1
:10004000BD120008BD120008BD120008BD12000854
:10005000BD120008BD120008BD120008BD12000844
:10006000BD120008BD120008BD120008BD12000834
:10007000BD120008BD120008BD120008BD12000824
:10008000BD120008BD120008BD120008BD12000814
:10009000BD120008BD120008BD120008BD12000804
:1000A000BD120008BD120008BD120008BD120008F4
:1000B00055120008BD12000800000000BD12000823
:1000C000BD1200080000000000000000BD12000882
:1000D00000000000BD120008BD1200080000000072
:1000E000BD120008BD120008BD120008000000008B
:1000F0000000000000000000000000000000000000
:0C01000000000000000000005FF808F1A3
:10010C0010B5054C237833B9044B13B10448AFF345
:10011C0000800123237010BD30000020000000007F
:10012C00D828000808B5034B1BB103490348AFF3AB
:10013C00008008BD0000000034000020D828000812
:10014C0080B582B000AF78607B68092B00F28081AB
:10015C0001A252F823F000BF8D010008D501000860
:10016C001D02000865020008AD020008F502000837
:10017C003D03000885030008CD03000815040008A2
:10018C0000220121B44801F07FFB00220221B24879
:10019C0001F07AFB00220421AF4801F075FB00222C
:1001AC000821AD4801F070FB00221021AA4801F093
:1001BC006BFB00222021A84801F066FB01224021A4
:1001CC00A54801F061FB43E101220121A24801F0A5
:1001DC005BFB00220221A04801F056FB0022042107
:1001EC009D4801F051FB012208219B4801F04CFB7A
:1001FC0001221021984801F047FB0122202196484A
:10020C0001F042FB01224021934801F03DFB1FE12C
:10021C0000220121904801F037FB002202218E4878
:10022C0001F032FB012204218B4801F02DFB00224E
:10023C000821894801F028FB00221021864801F092
:10024C0023FB01222021844801F01EFB00224021C7
:10025C00814801F019FBFBE0002201217E4801F0EE
:10026C0013FB002202217C4801F00EFB002204212A
:10027C00794801F009FB00220821774801F004FBC2
:10028C0001221021744801F0FFFA0122202172484A
:10029C0001F0FAFA002240216F4801F0F5FAD7E09C
:1002AC00012201216C4801F0EFFA002202216A4878
:1002BC0001F0EAFA00220421674801F0E5FA012274
:1002CC000821654801F0E0FA01221021624801F092
:1002DC00DBFA00222021604801F0D6FA00224021EE
:1002EC005D4801F0D1FAB3E0002201215A4801F037
:1002FC00CBFA01220221584801F0C6FA002204214F
:10030C00554801F0C1FA00220821534801F0BCFA0B
:10031C0001221021504801F0B7FA002220214E484A
:10032C0001F0B2FA002240214B4801F0ADFA8FE007
:10033C0000220121484801F0A7FA01220221464877
:10034C0001F0A2FA00220421434801F09DFA002298
:10035C000821414801F098FA002210213E4801F092
:10036C0093FA002220213C4801F08EFA0022402111
:10037C00394801F089FA6BE000220121364801F07E
:10038C0083FA00220221344801F07EFA0022042173
:10039C00314801F079FA012208212F4801F074FA52
:1003AC00012210212C4801F06FFA012220212A4849
:1003BC0001F06AFA01224021274801F065FA47E072
:1003CC0000220121244801F05FFA00220221224878
:1003DC0001F05AFA002204211F4801F055FA0022BC
:1003EC0008211D4801F050FA002210211A4801F092
:1003FC004BFA00222021184801F046FA0022402135
:10040C00154801F041FA23E000220121124801F0C5
:10041C003BFA00220221104801F036FA0022042196
:10042C000D4801F031FA002208210B4801F02CFA9A
:10043C0001221021084801F027FA00222021064849
:10044C0001F022FA00224021034801F01DFA00BFFE
:10045C0000BF0837BD4680BD000C014080B582B09E
:10046C0000AF78607B68032B6CD801A252F823F0A4
:10047C008D040008BF040008F104000821050008E1
:10048C0001228021324801F0FFF901224FF48071E2
:10049C002F4801F0F9F901224FF400712C4801F0BA
:1004AC00F3F92C4A7B6852F823301846FFF748FEC4
:1004BC0049E001224021264801F0E6F901224FF4DF
:1004CC008071234801F0E0F901224FF400712048BB
:1004DC0001F0DAF91F4A7B6852F823301846FFF70F
:1004EC002FFE30E001224021194801F0CDF9012204
:1004FC008021174801F0C8F901224FF4007114480B
:10050C0001F0C2F9134A7B6852F823301846FFF702
:10051C0017FE18E0012240210D4801F0B5F9012227
:10052C0080210B4801F0B0F901224FF4807108488A
:10053C0001F0AAF9074A7B6852F823301846FFF7F6
:10054C00FFFD00E000BF00BF0837BD4680BD00BF07
:10055C00000801400000002080B485B000AF786036
:10056C0039607A681A4B83FB02139910D317C91A96
:10057C000B469B000B445B00D31AFB607B68144A50
:10058C0082FB03129210DB17D31A124A1360114A22
:10059C00FB6853603A680E4B83FB02139910D31718
:1005AC00C91A0B469B000B445B00D31AFB603B68DB
:1005BC00074A82FB03129210DB17D31A054A936089
:1005CC00044AFB68D36000BF1437BD4680BC70473B
:1005DC00676666660000002080B582B000AF0346F7
:1005EC00FB71FB79C02B3ED0C02B00F3CF80802B4E
:1005FC006AD0802B00F3CA80002B03D0332B00F081
:10060C009480C3E001224FF480717B4801F03CF9E7
:10061C0001224FF40071784801F036F901224FF4B1
:10062C008061754801F030F901224FF40061724885
:10063C0001F02AF901224FF480516F4801F024F99E
:10064C0001224FF400516C4801F01EF901224FF4C5
:10065C008041694801F018F901224FF400416648C5
:10066C0001F012F9C3E001224FF48071624801F0ED
:10067C000BF901224FF400715F4801F005F90022DB
:10068C004FF480615C4801F0FFF800224FF40061E8
:10069C00594801F0F9F800224FF48051564801F006
:1006AC00F3F800224FF40051534801F0EDF800220A
:1006BC004FF48041504801F0E7F800224FF400411C
:1006CC004D4801F0E1F892E001224FF480714A4864
:1006DC0001F0DAF800224FF40071474801F0D4F829
:1006EC0000224FF48061444801F0CEF800224FF410
:1006FC000061414801F0C8F800224FF480513E4897
:10070C0001F0C2F800224FF400513B4801F0BCF854
:10071C0000224FF48041384801F0B6F800224FF423
:10072C000041354801F0B0F861E000224FF48071CF
:10073C00314801F0A9F800224FF400712E4801F065
:10074C00A3F801224FF480612B4801F09DF801229F
:10075C004FF40061284801F097F800224FF48051C3
:10076C00254801F091F800224FF40051224801F085
:10077C008BF801224FF480411F4801F085F80122CB
:10078C004FF400411C4801F07FF830E001224FF497
:10079C008071194801F078F801224FF40071164865
:1007AC0001F072F801224FF48061134801F06CF8EB
:1007BC0001224FF40061104801F066F801224FF459
:1007CC0080510D4801F060F801224FF400510A48A5
:1007DC0001F05AF801224FF48041074801F054F817
:1007EC0001224FF40041044801F04EF800BF00BF55
:1007FC000837BD4680BD00BF000C014080B582B0FB
:10080C0000AF78607B68072B00F28E8101A252F852
:10081C0023F000BF410800089F080008FD080008ED
:10082C005B090008B9090008170A0008750A0008D6
:10083C00D30A000800220421BA4801F025F801224D
:10084C000821B84801F020F801224FF48061B54826
:10085C0001F01AF801224FF40061B24801F014F8CB
:10086C0001224FF48051AF4801F00EF801224FF4F1
:10087C000051AC4801F008F801224FF48041A9481E
:10088C0001F002F801224FF40041A64800F0FCFFF1
:10089C0079E101220421A34800F0F6FF002208218F
:1008AC00A04800F0F1FF01224FF480619D4800F058
:1008BC00EBFF01224FF400619A4800F0E5FF0122A2
:1008CC004FF48051974800F0DFFF01224FF40051A4
:1008DC00944800F0D9FF01224FF48041914800F078
:1008EC00D3FF01224FF400418E4800F0CDFF4AE1C6
:1008FC00012204218B4800F0C7FF012208218948FE
:10090C0000F0C2FF00224FF48061864800F0BCFF6B
:10091C0001224FF40061834800F0B6FF01224FF42E
:10092C008051804800F0B0FF01224FF400517D4807
:10093C0000F0AAFF01224FF480417A4800F0A4FF96
:10094C0001224FF40041774800F09EFF1BE1012289
:10095C000421744800F098FF01220821714800F02E
:10096C0093FF01224FF480616E4800F08DFF00224E
:10097C004FF400616B4800F087FF01224FF4805167
:10098C00684800F081FF01224FF40051654800F0E7
:10099C007BFF01224FF48041624800F075FF012279
:1009AC004FF400415F4800F06FFFECE0012204219E
:1009BC005C4800F069FF012208215A4800F064FFEE
:1009CC0001224FF48061574800F05EFF01224FF482
:1009DC000061544800F058FF00224FF480515148F8
:1009EC0000F052FF01224FF400514E4800F04CFF32
:1009FC0001224FF480414B4800F046FF01224FF496
:100A0C000041484800F040FFBDE001220421454868
:100A1C0000F03AFF01220821424800F035FF012284
:100A2C004FF480613F4800F02FFF01224FF400612A
:100A3C003C4800F029FF01224FF48051394800F066
:100A4C0023FF00224FF40051364800F01DFF012215
:100A5C004FF48041334800F017FF01224FF400415E
:100A6C00304800F011FF8EE0012204212D4800F0E7
:100A7C000BFF012208212B4800F006FF01224FF446
:100A8C008061284800F000FF01224FF400612548E6
:100A9C0000F0FAFE01224FF48051224800F0F4FEDF
:100AAC0001224FF400511F4800F0EEFE00224FF4DB
:100ABC0080411C4800F0E8FE01224FF40041194827
:100ACC0000F0E2FE5FE001220421164800F0DCFE9B
:100ADC0001220821134800F0D7FE01224FF4806157
:100AEC00104800F0D1FE01224FF400610D4800F0D7
:100AFC00CBFE01224FF480510A4800F0C5FE0122C2
:100B0C004FF40051074800F0BFFE01224FF4804122
:100B1C00044800F0B9FE00224FF40041014800F0F7
:100B2C00B3FE30E000080140012204211B4800F014
:100B3C00ABFE01220821194800F0A6FE01224FF459
:100B4C008061164800F0A0FE01224FF400611348AA
:100B5C0000F09AFE01224FF48051104800F094FEF0
:100B6C0001224FF400510D4800F08EFE01224FF48B
:100B7C0080410A4800F088FE01224FF400410748EA
:100B8C0000F082FE00BF064A7B6813441B781846AF
:100B9C00FFF722FD00BF0837BD4680BD00080140AD
:100BAC001C00002080B584B000AF786039603B68D1
:100BBC00012B12D97B681B78FB737B685A787B6896
:100BCC001A707B680133FA7B1A707B685A1C3B687D
:100BDC00013B19461046FFF7E5FF00BF1037BD4635
:100BEC0080BD000080B582B000AF00F063FB00F068
:100BFC00F1F800F077F900F029F9694801F0A2FA50
:100C0C000A2000F025FA0A2000F0D2F9142000F096
:100C1C00E3F9012000F0F4F9012000F005FA614B32
:100C2C0000221A705F4BC0225A705E4B80229A7061
:100C3C005C4B3322DA705B4B33221A71594B802296
:100C4C005A71584BC0229A71564B0022DA7100230C
:100C5C007B60554B1B68012B32D12021534800F08F
:100C6C002BFE0A2000F0F4F9514B1B680133504A5B
:100C7C0013604F4B1B683B2B07DD4D4B00221A605A
:100C8C004C4B1B6801334B4A13604A4B1B683B2B84
:100C9C0007DD484B00221A60474B1B680133464A5C
:100CAC001360454B1B68172B02DD434B00221A6067
:100CBC00414B1B683F4A126811461846FFF74CFC23
:100CCC003E4B1B68012B3CD13D4B1B685A1C3C49CD
:100CDC000A601846FFF7C2FB7B68002B07D1002285
:100CEC004021324800F0D0FD01237B601EE07B6880
:100CFC00012B07D1002280212C4800F0C5FD0223D6
:100D0C007B6013E07B68022B08D100224FF48071CA
:100D1C00264800F0B9FD03237B6007E000224FF466
:100D2C000071224800F0B0FD00237B60244B1B684F
:100D3C000422934202DB224B00221A600A2000F0AC
:100D4C0037F9204B1B68012B06D11021174800F0F6
:100D5C00B3FD142000F040F91B4B1B68012B11D183
:100D6C001A4B1B685A1C19490A601846FFF746FDB6
:100D7C00164B1B68072B02DD144B00221A60012056
:100D8C0000F03EF9124B1B68012B7FF462AF082177
:100D9C000448FFF707FF012000F046F959E700BFB0
:100DAC007C0000201C000020740000200008014082
:100DBC001800002014000020100000205400002017
:100DCC004C0000205C000020680000205000002037
:100DDC006C00002080B590B000AF07F118032822FA
:100DEC000021184601F06AFD3B1D00221A605A6072
:100DFC009A60DA601A610223BB610123BB62102383
:100E0C00FB6200237B6307F11803184600F06EFDAC
:100E1C000346002B01D000F0C5F80F237B600023A4
:100E2C00BB600023FB6000233B6100237B613B1D07
:100E3C000021184600F0DAFF0346002B01D000F029
:100E4C00B1F800BF4037BD4680BD000080B586B00C
:100E5C0000AF07F1080300221A605A609A60DA604A
:100E6C003B4600221A605A601D4B4FF080421A60BC
:100E7C001B4B41F63F725A60194B00229A60184B7B
:100E8C000922DA60164B00221A61154B00229A6176
:100E9C00134801F007F90346002B01D000F082F84B
:100EAC004FF48053BB6007F1080319460C4801F05E
:100EBC009DFA0346002B01D000F074F800233B6030
:100ECC0000237B603B461946054801F069FC03464C
:100EDC00002B01D000F066F800BF1837BD4680BD6E
:100EEC007C00002080B586B000AF07F1080300221B
:100EFC001A605A609A60DA60224B9B69214A43F06F
:100F0C00040393611F4B9B6903F004037B607B68B4
:100F1C001C4B9B691B4A43F008039361194B9B695B
:100F2C0003F008033B603B6800224FF6FC71164847
:100F3C0000F0AAFC00224FF67F71144800F0A4FCCC
:100F4C004FF6FC73BB600123FB6000233B61022363
:100F5C007B6107F1080319460B4800F01BFB4FF6A9
:100F6C007F73BB600123FB6000233B6102237B6129
:100F7C0007F108031946054800F00CFB00BF1837B1
:100F8C00BD4680BD0010024000080140000C01402D
:100F9C0080B582B000AF786000F06EF800BF083703
:100FAC00BD4680BD80B400AF72B600BFFEE7000046
:100FBC0080B483B000AF7860054A7B681360054B42
:100FCC0000221A6000BF0C37BD4680BC704700BFC2
:100FDC00580000205400002080B483B000AF78602B
:100FEC00054A7B681360054B00221A6000BF0C3762
:100FFC00BD4680BC704700BF600000205C00002034
:10100C0080B483B000AF7860054A7B681360054BF1
:10101C0000221A6000BF0C37BD4680BC704700BF71
:10102C00640000206800002080B483B000AF7860BA
:10103C00054A7B681360054B00221A6000BF0C3711
:10104C00BD4680BC704700BF700000206C000020C3
:10105C0080B483B000AF7860054A7B681360054BA1
:10106C0000221A6000BF0C37BD4680BC704700BF21
:10107C00780000207400002080B400AF294B1B685E
:10108C00002B0BDD274B1B68013B264A1360254BBD
:10109C001B68002B02DC244B01221A60234B1B68BB
:1010AC00002B0BDD214B1B68013B204A13601F4BAF
:1010BC001B68002B02DC1E4B01221A601D4B1B68A7
:1010CC00002B0BDD1B4B1B68013B1A4A1360194BA1
:1010DC001B68002B02DC184B01221A60174B1B6893
:1010EC00002B0BDD154B1B68013B144A1360134B93
:1010FC001B68002B02DC124B01221A60114B1B687F
:10110C00002B0BDD0F4B1B68013B0E4A13600D4B84
:10111C001B68002B02DC0C4B01221A6000BFBD4681
:10112C0080BC704758000020540000206000002054
:10113C005C0000206400002068000020700000208B
:10114C006C000020780000207400002080B485B072
:10115C0000AF154B9B69144A43F001039361124B8A
:10116C009B6903F00103BB60BB680F4BDB690E4A44
:10117C0043F08053D3610C4BDB6903F080537B60ED
:10118C007B680A4B5B68FB60FB6823F0E063FB60E9
:10119C00FB6843F08063FB60044AFB68536000BF4C
:1011AC001437BD4680BC704700100240000001405F
:1011BC0080B584B000AF78607B681B68B3F1804F5A
:1011CC0013D10C4BDB690B4A43F00103D361094B80
:1011DC00DB6903F00103FB60FB68002200211C208B
:1011EC0000F0A1F91C2000F0BAF900BF1037BD4681
:1011FC0080BD00BF0010024080B400AFFEE780B499
:10120C0000AFFEE780B400AFFEE780B400AFFEE7AE
:10121C0080B400AFFEE780B400AF00BFBD4680BC19
:10122C00704780B400AF00BFBD4680BC704780B42F
:10123C0000AF00BFBD4680BC704780B500AF00F06A
:10124C007FF800BF80BD000080B500AF024800F001
:10125C00C5FF00BF80BD00BF7C00002080B400AF84
:10126C0000BFBD4680BC7047FFF7F8FF0B480C4928
:10127C000C4A002302E0D458C4500433C4188C42E6
:10128C00F9D3094A094C002301E013600432A2424D
:10129C00FBD301F0EFFAFFF7A5FC7047000000202C
:1012AC00300000201C29000830000020C80000205D
:1012BC00FEE7000080B500AF084B1B68074A43F0FF
:1012CC0010031360032000F023F90F2000F008F83E
:1012DC00FFF73CFF0023184680BD00BF00200240F2
:1012EC0080B582B000AF7860124B1A68124B1B7835
:1012FC0019464FF47A73B3FBF1F3B2FBF3F31846D0
:10130C0000F03BF90346002B01D001230EE07B6873
:10131C000F2B0AD8002279684FF0FF3000F003F948
:10132C00064A7B681360002300E001231846083747
:10133C00BD4680BD240000202C0000202800002089
:10134C0080B400AF054B1B781A46054B1B68134441
:10135C00034A136000BFBD4680BC70472C000020C0
:10136C00C400002080B400AF024B1B681846BD4679
:10137C0080BC7047C400002080B485B000AF78609A
:10138C007B6803F00703FB600C4BDB68BB60BA683F
:10139C004FF6FF031340BB60FB681A02BB68134394
:1013AC0043F0BF6343F40033BB60044ABB68D360B3
:1013BC0000BF1437BD4680BC704700BF00ED00E095
:1013CC0080B400AF044BDB681B0A03F0070318461C
:1013DC00BD4680BC704700BF00ED00E080B483B018
:1013EC0000AF0346FB7197F90730002B0BDBFB7941
:1013FC0003F01F02064997F907305B09012000FA38
:10140C0002F241F8232000BF0C37BD4680BC704768
:10141C0000E100E080B483B000AF03463960FB719B
:10142C0097F90730002B0ADB3B68DAB20C4997F9C5
:10143C0007301201D2B20B4483F800230AE03B6858
:10144C00DAB20849FB7903F00F03043B1201D2B264
:10145C000B441A7600BF0C37BD4680BC704700BFEA
:10146C0000E100E000ED00E080B489B000AFF8606E
:10147C00B9607A60FB6803F00703FB61FB69C3F199
:10148C000703042B28BF0423BB61FB690433062B21
:10149C0002D9FB69033B00E000237B614FF0FF3274
:1014AC00BB6902FA03F3DA43BB681A407B699A40C2
:1014BC004FF0FF317B6901FA03F3D9437B680B4092
:1014CC00134318462437BD4680BC704780B582B0A4
:1014DC0000AF78607B68013BB3F1807F01D30123BF
:1014EC000FE00A4A7B68013B53600F214FF0FF303D
:1014FC00FFF790FF054B00229A60044B07221A60FD
:10150C00002318460837BD4680BD00BF10E000E040
:10151C0080B582B000AF78607868FFF72DFF00BF10
:10152C000837BD4680BD80B586B000AF0346B960B4
:10153C007A60FB7300237B61FFF742FF78617A6866
:10154C00B9687869FFF790FF024697F90F3011469A
:10155C001846FFF75FFF00BF1837BD4680BD80B54A
:10156C0082B000AF0346FB7197F907301846FFF7BE
:10157C0035FF00BF0837BD4680BD80B582B000AFD7
:10158C0078607868FFF7A2FF034618460837BD4617
:10159C0080BD000080B48BB000AF78603960002350
:1015AC007B6200233B6248E101227B6A02FA03F36F
:1015BC00FB613B681B68FA691340BB61BA69FB6944
:1015CC009A4240F037813B685B68A34A93425ED0F5
:1015DC00A14A934275D8A14A934258D09F4A93424C
:1015EC006FD89F4A934252D09D4A934269D89D4AE4
:1015FC0093424CD09B4A934263D89B4A934246D029
:10160C00994A93425DD8122B2AD8122B59D801A291
:10161C0052F823F09B160008751600088716000870
:10162C00C9160008CF160008CF160008CF16000800
:10163C00CF160008CF160008CF160008CF160008EA
:10164C00CF160008CF160008CF160008CF160008DA
:10165C00CF160008CF1600087D160008911600085A
:10166C00824A934213D02CE03B68DB683B6229E052
:10167C003B68DB6804333B6224E03B68DB6808337F
:10168C003B621FE03B68DB680C333B621AE03B6853
:10169C009B68002B02D104233B6213E03B689B68E0
:1016AC00012B05D108233B627B68FA691A6109E0BA
:1016BC0008233B627B68FA695A6103E000233B62B2
:1016CC0000E000BFBB69FF2B01D87B6801E07B68A1
:1016DC0004337B61BB69FF2B02D87B6A9B0002E061
:1016EC007B6A083B9B003B617B691A680F213B6955
:1016FC0001FA03F3DB431A40396A3B6901FA03F33D
:10170C001A437B691A603B685B6803F08053002BBB
:10171C0000F09080564B9B69554A43F0010393614E
:10172C00534B9B6903F00103BB60BB68514A7B6A56
:10173C009B08023352F82330FB607B6A03F00303EF
:10174C009B000F2202FA03F3DB43FA681340FB60A1
:10175C007B68494A93420DD07B68484A934207D034
:10176C007B68474A934201D1022304E0032302E041
:10177C00012300E000237A6A02F0030292009340F6
:10178C00FA681343FB603B497B6A9B080233FA6897
:10179C0041F823203B685B6803F48013002B06D0D0
:1017AC00384B9A683749BB6913438B6006E0354B5D
:1017BC009A68BB69DB43334913408B603B685B68B9
:1017CC0003F40013002B06D02E4BDA682D49BB69AD
:1017DC001343CB6006E02B4BDA68BB69DB4329492A
:1017EC001340CB603B685B6803F40033002B06D0DE
:1017FC00244B5A682349BB6913434B6006E0214BC9
:10180C005A68BB69DB431F4913404B603B685B68FC
:10181C0003F48033002B06D01A4B1A681949BB69A4
:10182C0013430B6006E0174B1A68BB69DB43154981
:10183C0013400B607B6A01337B623B681A687B6ADE
:10184C0022FA03F3002B7FF4AFAE00BF00BF2C379E
:10185C00BD4680BC704700BF000032100000311044
:10186C0000002210000021100000121000001110C6
:10187C00001002400000014000080140000C014033
:10188C00001001400004014080B483B000AF7860C8
:10189C000B467B8013467B707B78002B03D07A88B9
:1018AC007B681A6103E07B881A047B681A6100BFAD
:1018BC000C37BD4680BC704780B485B000AF7860F3
:1018CC000B467B807B68DB68FB607A88FB68134087
:1018DC001A04FB68D9437B880B401A437B681A6156
:1018EC0000BF1437BD4680BC7047000080B586B081
:1018FC0000AF78607B68002B01D101236CE27B6820
:10190C001B6803F00103002B00F08780924B5B688F
:10191C0003F00C03042B0CD08F4B5B6803F00C030F
:10192C00082B12D18C4B5B6803F48033B3F5803FEA
:10193C000BD1894B1B6803F40033002B6CD07B68F4
:10194C005B68002B68D1012346E27B685B68B3F5CA
:10195C00803F06D1804B1B687F4A43F48033136071
:10196C002EE07B685B68002B0CD17B4B1B687A4AA2
:10197C0023F480331360784B1B68774A23F480235D
:10198C0013601DE07B685B68B3F5A02F0CD1724B24
:10199C001B68714A43F4802313606F4B1B686E4ABB
:1019AC0043F4803313600BE06B4B1B686A4A23F4DF
:1019BC0080331360684B1B68674A23F480231360E1
:1019CC007B685B68002B13D0FFF7CCFC386108E018
:1019DC00FFF7C8FC02463B69D31A642B01D90323D9
:1019EC00FAE15D4B1B6803F40033002BF0D014E0DC
:1019FC00FFF7B8FC386108E0FFF7B4FC02463B691E
:101A0C00D31A642B01D90323E6E1534B1B6803F46F
:101A1C000033002BF0D100E000BF7B681B6803F0A3
:101A2C000203002B63D04C4B5B6803F00C03002BC0
:101A3C000BD0494B5B6803F00C03082B1CD1464BB5
:101A4C005B6803F48033002B16D1434B1B6803F007
:101A5C000203002B05D07B681B69012B01D00123ED
:101A6C00BAE13D4B1B6823F0F8027B685B69DB0035
:101A7C00394913430B603AE07B681B69002B20D07B
:101A8C00364B01221A60FFF76DFC386108E0FFF756
:101A9C0069FC02463B69D31A022B01D903239BE153
:101AAC002D4B1B6803F00203002BF0D02A4B1B6854
:101ABC0023F0F8027B685B69DB00274913430B605A
:101ACC0015E0264B00221A60FFF74CFC386108E049
:101ADC00FFF748FC02463B69D31A022B01D90323BA
:101AEC007AE11D4B1B6803F00203002BF0D17B68DD
:101AFC001B6803F00803002B3AD07B689B69002B12
:101B0C0019D0174B01221A60FFF72CFC386108E042
:101B1C00FFF728FC02463B69D31A022B01D9032399
:101B2C005AE10D4B5B6A03F00203002BF0D001204D
:101B3C0000F09AFA1CE00A4B00221A60FFF712FC24
:101B4C0038610FE0FFF70EFC02463B69D31A022BFB
:101B5C0008D9032340E100BF0010024000004242BC
:101B6C00800442429E4B5B6A03F00203002BE9D1D6
:101B7C007B681B6803F00403002B00F0A680002395
:101B8C00FB75974BDB6903F08053002B0DD1944B05
:101B9C00DB69934A43F08053D361914BDB6903F0CB
:101BAC008053BB60BB680123FB758E4B1B6803F431
:101BBC008073002B18D18B4B1B688A4A43F48073BB
:101BCC001360FFF7CFFB386108E0FFF7CBFB024651
:101BDC003B69D31A642B01D90323FDE0814B1B68AD
:101BEC0003F48073002BF0D07B68DB68012B06D1EB
:101BFC007B4B1B6A7A4A43F0010313622DE07B682E
:101C0C00DB68002B0CD1764B1B6A754A23F0010361
:101C1C001362734B1B6A724A23F0040313621CE0B9
:101C2C007B68DB68052B0CD16D4B1B6A6C4A43F04F
:101C3C00040313626A4B1B6A694A43F00103136283
:101C4C000BE0674B1B6A664A23F001031362644B7B
:101C5C001B6A634A23F0040313627B68DB68002B66
:101C6C0015D0FFF77FFB38610AE0FFF77BFB0246DC
:101C7C003B69D31A41F28832934201D90323ABE07A
:101C8C00574B1B6A03F00203002BEED014E0FFF756
:101C9C0069FB38610AE0FFF765FB02463B69D31A22
:101CAC0041F28832934201D9032395E04C4B1B6AD5
:101CBC0003F00203002BEED1FB7D012B05D1484B29
:101CCC00DB69474A23F08053D3617B68DB69002BC7
:101CDC0000F08180424B5B6803F00C03082B61D051
:101CEC007B68DB69022B46D13F4B00221A60FFF761
:101CFC0039FB386108E0FFF735FB02463B69D31A24
:101D0C00022B01D9032367E0354B1B6803F00073EA
:101D1C00002BF0D17B681B6AB3F5803F08D1304BA8
:101D2C005B6823F400327B689B682D4913434B603E
:101D3C002B4B5B6823F474127B68196A7B685B6AB3
:101D4C000B43274913434B60274B01221A60FFF7C3
:101D5C0009FB386108E0FFF705FB02463B69D31A23
:101D6C00022B01D9032337E01D4B1B6803F00073D2
:101D7C00002BF0D02FE01C4B00221A60FFF7F2FA78
:101D8C00386108E0FFF7EEFA02463B69D31A022BE2
:101D9C0001D9032320E0124B1B6803F00073002BC6
:101DAC00F0D118E07B68DB69012B01D1012313E032
:101DBC000B4B5B68FB60FB6803F480327B681B6A2F
:101DCC009A4206D1FB6803F470127B685B6A9A42F4
:101DDC0001D0012300E0002318461837BD4680BD12
:101DEC0000100240007000406000424280B584B098
:101DFC0000AF786039607B68002B01D10123D0E003
:101E0C006A4B1B6803F007033A689A4210D9674B78
:101E1C001B6823F0070265493B6813430B60634B57
:101E2C001B6803F007033A689A4201D00123B8E01B
:101E3C007B681B6803F00203002B20D07B681B68B7
:101E4C0003F00403002B05D0594B5B68584A43F44C
:101E5C00E06353607B681B6803F00803002B05D01C
:101E6C00534B5B68524A43F460535360504B5B686E
:101E7C0023F0F0027B689B684D4913434B607B68F1
:101E8C001B6803F00103002B40D07B685B68012BBF
:101E9C0007D1474B1B6803F40033002B15D10123EA
:101EAC007FE07B685B68022B07D1414B1B6803F01A
:101EBC000073002B09D1012373E03D4B1B6803F029
:101ECC000203002B01D101236BE0394B5B6823F03B
:101EDC0003027B685B68364913434B60FFF742FA99
:101EEC00F8600AE0FFF73EFA0246FB68D31A41F2AB
:101EFC008832934201D9032353E02D4B5B6803F0E6
:101F0C000C027B685B689B009A42EBD1274B1B68E9
:101F1C0003F007033A689A4210D2244B1B6823F053
:101F2C00070222493B6813430B60204B1B6803F0EC
:101F3C0007033A689A4201D0012332E07B681B68A0
:101F4C0003F00403002B08D0194B5B6823F4E06208
:101F5C007B68DB68164913434B607B681B6803F096
:101F6C000803002B09D0124B5B6823F460527B688A
:101F7C001B69DB000E4913434B6000F021F802464D
:101F8C000B4B5B681B0903F00F030A49CB5C22FA6D
:101F9C0003F3094A1360094B1B681846FFF7A0F9B5
:101FAC00002318461037BD4680BD00BF00200240FC
:101FBC0000100240F0280008240000202800002017
:101FCC0080B487B000AF0023FB600023BB6000230C
:101FDC007B6100237B6000233B611E4B5B68FB60D5
:101FEC00FB6803F00C03042B02D0082B03D027E072
:101FFC00194B3B6127E0FB689B0C03F00F03174A5E
:10200C00D35C7B60FB6803F48033002B10D0114B46
:10201C005B685B0C03F00103114AD35CBB607B680B
:10202C000D4A02FB03F2BB68B2FBF3F37B6104E0E5
:10203C007B680C4A02FB03F37B617B693B6102E02A
:10204C00054B3B6100BF3B6918461C37BD4680BC45
:10205C00704700BF0010024000127A0000290008EF
:10206C001029000800093D0080B485B000AF7860ED
:10207C000A4B1B680A4AA2FB03235B0A7A6802FB21
:10208C0003F3FB6000BFFB685A1EFA60002BF9D10A
:10209C0000BF00BF1437BD4680BC70472400002031
:1020AC00D34D621080B582B000AF78607B68002B96
:1020BC0001D1012341E07B6893F83D30DBB2002B6A
:1020CC0006D17B68002283F83C207868FFF770F813
:1020DC007B68022283F83D207B681A687B68043396
:1020EC001946104600F06EFA7B68012283F84620F0
:1020FC007B68012283F83E207B68012283F83F2015
:10210C007B68012283F840207B68012283F8412000
:10211C007B68012283F842207B68012283F84320EC
:10212C007B68012283F844207B68012283F84520D8
:10213C007B68012283F83D20002318460837BD46F2
:10214C0080BD000080B485B000AF78607B6893F8E8
:10215C003D30DBB2012B01D0012335E07B6802223C
:10216C0083F83D207B681B68DA687B681B6842F04B
:10217C000102DA607B681B68164A934209D07B68BF
:10218C001B68B3F1804F04D07B681B68124A9342E2
:10219C0011D17B681B689B6803F00703FB60FB682D
:1021AC00062B10D07B681B681A687B681B6842F092
:1021BC0001021A6007E07B681B681A687B681B6861
:1021CC0042F001021A60002318461437BD4680BC49
:1021DC00704700BF002C01400004004080B582B065
:1021EC0000AF78607B681B681B6903F00203022B4D
:1021FC0022D17B681B68DB6803F00203022B1BD126
:10220C007B681B686FF002021A617B6801221A77E7
:10221C007B681B689B6903F00303002B03D0786871
:10222C0000F0B4F905E0786800F0A7F9786800F0E0
:10223C00B6F97B6800221A777B681B681B6903F070
:10224C000403042B22D17B681B68DB6803F00403B6
:10225C00042B1BD17B681B686FF004021A617B682E
:10226C0002221A777B681B689B6903F44073002B6E
:10227C0003D0786800F08AF905E0786800F07DF901
:10228C00786800F08CF97B6800221A777B681B68F1
:10229C001B6903F00803082B22D17B681B68DB68E1
:1022AC0003F00803082B1BD17B681B686FF0080236
:1022BC001A617B6804221A777B681B68DB6903F060
:1022CC000303002B03D0786800F060F905E0786810
:1022DC0000F053F9786800F062F97B6800221A77F5
:1022EC007B681B681B6903F01003102B22D17B68E1
:1022FC001B68DB6803F01003102B1BD17B681B6879
:10230C006FF010021A617B6808221A777B681B68D1
:10231C00DB6903F44073002B03D0786800F036F9C6
:10232C0005E0786800F029F9786800F038F97B68E6
:10233C0000221A777B681B681B6903F00103012BD1
:10234C000ED17B681B68DB6803F00103012B07D1FE
:10235C007B681B686FF001021A617868FEF718FE43
:10236C007B681B681B6903F08003802B0ED17B6894
:10237C001B68DB6803F08003802B07D17B681B682C
:10238C006FF080021A61786800F06BFA7B681B684A
:10239C001B6903F04003402B0ED17B681B68DB6884
:1023AC0003F04003402B07D17B681B686FF04002A1
:1023BC001A61786800F0FCF87B681B681B6903F0F5
:1023CC002003202B0ED17B681B68DB6803F02003F5
:1023DC00202B07D17B681B686FF020021A6178688C
:1023EC0000F036FA00BF0837BD4680BD80B584B01A
:1023FC0000AF786039600023FB737B6893F83C3046
:10240C00012B01D10223B4E07B68012283F83C202C
:10241C007B68022283F83D207B681B689B68BB604D
:10242C00BB6823F07703BB60BB6823F47F43BB60BE
:10243C007B681B68BA689A603B681B68B3F5005FE1
:10244C003ED0B3F5005F00F28780B3F5805F00F0FB
:10245C008680B3F5805F7FD8702B1AD0702B7BD819
:10246C00602B50D0602B77D8502B3CD0502B73D88E
:10247C00402B58D0402B6FD8302B64D0302B6BD8DE
:10248C00202B60D0202B67D8002B5CD0102B5AD07F
:10249C0062E07B6818683B6899683B685A683B68DF
:1024AC00DB6800F05EF97B681B689B68BB60BB68EF
:1024BC0043F07703BB607B681B68BA689A604FE097
:1024CC007B6818683B6899683B685A683B68DB68AE
:1024DC0000F047F97B681B689A687B681B6842F4BC
:1024EC0080429A603CE07B6818683B6859683B689E
:1024FC00DB681A4600F0BEF87B681B685021184652
:10250C0000F015F92CE07B6818683B6859683B684B
:10251C00DB681A4600F0DCF87B681B686021184603
:10252C0000F005F91CE07B6818683B6859683B684B
:10253C00DB681A4600F09EF87B681B684021184641
:10254C0000F0F5F80CE07B681A683B681B681946CC
:10255C00104600F0ECF803E00123FB7300E000BF31
:10256C007B68012283F83D207B68002283F83C20A5
:10257C00FB7B18461037BD4680BD80B483B000AFDE
:10258C00786000BF0C37BD4680BC704780B483B008
:10259C0000AF786000BF0C37BD4680BC704780B47C
:1025AC0083B000AF786000BF0C37BD4680BC70476D
:1025BC0080B483B000AF786000BF0C37BD4680BCE0
:1025CC007047000080B485B000AF786039607B68DC
:1025DC001B68FB607B68254A934207D07B68B3F18C
:1025EC00804F03D07B68224A934208D1FB6823F0CA
:1025FC007003FB603B685B68FA681343FB607B68A5
:10260C001A4A934207D07B68B3F1804F03D07B68A2
:10261C00174A934208D1FB6823F44073FB603B6874
:10262C00DB68FA681343FB60FB6823F080023B68AD
:10263C005B691343FB607B68FA681A603B689A68B5
:10264C007B68DA623B681A687B689A627B68074A27
:10265C00934203D13B681A697B681A637B68012239
:10266C005A6100BF1437BD4680BC7047002C014036
:10267C000004004080B487B000AFF860B9607A60A5
:10268C00FB681B6A7B61FB681B6A23F00102FB6819
:10269C001A62FB689B693B613B6923F0F0033B6169
:1026AC007B681B013A6913433B617B6923F00A0386
:1026BC007B617A69BB6813437B61FB683A699A61F9
:1026CC00FB687A691A6200BF1C37BD4680BC704734
:1026DC0080B487B000AFF860B9607A60FB681B6AA1
:1026EC007B61FB681B6A23F01002FB681A62FB68B3
:1026FC009B693B613B6923F470433B617B681B0323
:10270C003A6913433B617B6923F0A0037B61BB688F
:10271C001B017A6913437B61FB683A699A61FB6818
:10272C007A691A6200BF1C37BD4680BC704780B402
:10273C0085B000AF786039607B689B68FB60FB6894
:10274C0023F07003FB603A68FB68134343F0070304
:10275C00FB607B68FA689A6000BF1437BD4680BC8A
:10276C00704780B487B000AFF860B9607A603B60A6
:10277C00FB689B687B617B6923F47F437B613B68CF
:10278C001A027B681A43BB6813437A6913437B6153
:10279C00FB687A699A6000BF1C37BD4680BC7047E5
:1027AC0080B485B000AF786039607B6893F83C30BA
:1027BC00012B01D1022341E07B68012283F83C20EC
:1027CC007B68022283F83D207B681B685B68FB609A
:1027DC007B681B689B68BB60FB6823F07003FB6025
:1027EC003B681B68FA681343FB607B681B68FA68DC
:1027FC005A607B681B68144A934209D07B681B683B
:10280C00B3F1804F04D07B681B68104A93420CD103
:10281C00BB6823F08003BB603B685B68BA681343FA
:10282C00BB607B681B68BA689A607B68012283F87E
:10283C003D207B68002283F83C2000231846143787
:10284C00BD4680BC704700BF002C01400004004016
:10285C0080B483B000AF786000BF0C37BD4680BC3D
:10286C00704780B483B000AF786000BF0C37BD46B2
:10287C0080BC704770B500260C4D0D4C641BA41029
:10288C00A64209D100F022F800260A4D0A4C641B1E
:10289C00A410A64205D170BD55F8043B98470136EB
:1028AC00EEE755F8043B98470136F2E71429000887
:1028BC0014290008142900081829000803460244AA
:1028CC00934200D1704703F8011BF9E7F8B500BF3C
:1028DC00F8BC08BC9E467047F8B500BFF8BC08BCF5
:0428EC009E4670474D
:1028F00000000000000000000102030406070809B0
:1029000002030405060708090A0B0C0D0E0F101030
:0429100001020000C0
:042914003101000885
:042918000D010008A5
:10291C00010000000500000000000000080000009D
:10292C000F00000008000000320000000102030448
:10293C00050607080024F400100000000100000048
:040000050800127568
:00000001FF
